:100000000C9462000C948A000C948A000C948A0070
:100010000C948A000C948A000C948A000C948A0038
:100020000C948A000C948A000C948A000C94C704E7
:100030000C948A000C948A000C948A000C948A0018
:100040000C9425040C948A000C9495040C946F0471
:100050000C948A000C948A000C948A000C948A00F8
:100060000C948A000C948A000000000024002700F1
:100070002A0000000000250028002B0000000008D6
:10008000000201000003040700000000000000005F
:1000900000000000230026002900040404040404D6
:1000A0000404020202020202030303030303010227
:1000B00004081020408001020408102001020408F6
:1000C0001020C80511241FBECFEFD8E0DEBFCDBF82
:1000D00011E0A0E0B1E0E4E7F5E102C005900D9287
:1000E000A232B107D9F721E0A2E2B1E001C01D922E
:1000F000A93FB207E1F710E0C2E6D0E004C02197C3
:10010000FE010E94B20AC136D107C9F70E94250636
:100110000C94B80A0C9400008F929F92AF92BF92F9
:10012000FF920F931F93CF93DF93F090F6012BE094
:100130002F1508F44CC02091F80108E512E0021BCD
:10014000110927FD1395000F111F000F111F20919A
:10015000F701C8E8D0E0C21BD10927FDD395CC0F29
:10016000DD1FCC0FDD1F4E010D2E000CAA08BB08B1
:100170009801012E000C440B550B281939094A0926
:100180005B09DC010E94310824EB30E040E050E0E4
:100190000E940708820E931EA41EB51E8C169D0693
:1001A0002CF0E801801691060CF4E4012297CC0FA4
:1001B000DD1F2FB7F8948F2D90E0FC01EE0FFF1F8D
:1001C000E80FF91FEF52FE4FD283C1832FBFDF919B
:1001D000CF911F910F91FF90BF90AF909F908F9004
:1001E000089590E0FC01E458FF4F2491FC01E25592
:1001F000FF4F3491FC01E656FF4FE491EE23C9F026
:10020000222339F0233001F1A8F4213019F12230F2
:1002100029F1F0E0EE0FFF1FEE58FF4FA591B491CA
:100220008FB7F894EC91611126C030953E233C9332
:100230008FBF08952730A9F02830C9F0243049F73E
:10024000809180008F7D03C0809180008F778093A4
:100250008000DFCF84B58F7784BDDBCF84B58F7D01
:10026000FBCF8091B0008F778093B000D2CF809188
:10027000B0008F7DF9CF3E2BDACFCF93DF9390E0A4
:10028000FC01E255FF4F249186569F4FFC0184915B
:100290008823D1F090E0880F991FFC01E859FF4FA7
:1002A000A591B491FC01EE58FF4FC591D491611115
:1002B0000EC09FB7F8948C91E22FE0958E238C931B
:1002C0002881E223E8839FBFDF91CF9108958FB704
:1002D000F894EC91E22BEC938FBFF6CF3FB7F894F4
:1002E0008091300190913101A0913201B0913301A0
:1002F00026B5A89B05C02F3F19F00196A11DB11D81
:100300003FBFBA2FA92F982F8827BC01CD01620FBC
:10031000711D811D911D42E0660F771F881F991F77
:100320004A95D1F708958F929F92AF92BF92CF9244
:10033000DF92EF92FF924B015C010E946E016B0114
:100340007C010E946E016C197D098E099F09683E2F
:10035000734081059105A8F321E0821A9108A10854
:10036000B10888EEC80E83E0D81EE11CF11C811490
:100370009104A104B10429F7FF90EF90DF90CF9092
:10038000BF90AF909F908F900895AF92BF92CF9201
:10039000DF92EF92FF920F931F93CF93DF936C0145
:1003A0007B018B01040F151FEB015E01AE18BF0826
:1003B000C017D10759F06991D601ED91FC910190D8
:1003C000F081E02DC6010995892B79F7C501DF91F0
:1003D000CF911F910F91FF90EF90DF90CF90BF9042
:1003E000AF900895FC01538D448D252F30E0842F6C
:1003F00090E0821B930B541710F0CF96089501974D
:100400000895FC01918D828D981761F0A28DAE0F39
:10041000BF2FB11D5D968C91928D9F5F9F73928FC0
:1004200090E008958FEF9FEF0895FC01918D828DEC
:10043000981731F0828DE80FF11D858D90E00895B9
:100440008FEF9FEF0895FC01918D228D892F90E011
:10045000805C9F4F821B91098F739927089584E3D5
:1004600091E00E94230221E0892B09F420E0822FF1
:10047000089580E090E0892B29F00E942F028111DD
:100480000C9400000895FC01A48DA80FB92FB11D94
:10049000A35ABF4F2C91848D90E001968F739927BA
:1004A000848FA689B7892C93A089B1898C91837098
:1004B00080648C93938D848D981306C00288F38991
:1004C000E02D80818F7D80830895EF92FF920F93BE
:1004D0001F93CF93DF93EC0181E0888F9B8D8C8DF0
:1004E00098131AC0E889F989808185FF15C09FB7E4
:1004F000F894EE89FF896083E889F98980818370A7
:10050000806480839FBF81E090E0DF91CF911F9155
:100510000F91FF90EF900895F62E0B8D10E00F5F76
:100520001F4F0F731127E02E8C8D8E110CC00FB64C
:1005300007FCFACFE889F989808185FFF5CFCE01E4
:100540000E944302F1CFEB8DEC0FFD2FF11DE35A1A
:10055000FF4FF0829FB7F8940B8FEA89FB89808167
:100560008062CFCFCF93DF93EC01888D8823B9F0E1
:10057000AA89BB89E889F9898C9185FD03C08081AE
:1005800086FD0DC00FB607FCF7CF8C9185FFF2CF2B
:10059000808185FFEDCFCE010E944302E9CFDF913C
:1005A000CF910895FC0101900020E9F73197AF0148
:1005B000481B590BBC0184E391E00C94C5018F9258
:1005C0009F92AF92BF920F931F93CF93DF93CDB7BC
:1005D000DEB7A1970FB6F894DEBF0FBECDBF19A24C
:1005E000423008F44AE08E010F5D1F4F842E912C9B
:1005F000B12CA12CA50194010E943908E62FB90164
:10060000CA01EA30F4F4E05DD801EE938D01232BAA
:10061000242B252B79F790E080E0109719F0CD017D
:100620000E94D202A1960FB6F894DEBF0FBECDBFD6
:10063000DF91CF911F910F91BF90AF909F908F90BE
:100640000895E95CE1CF4F925F926F927F928F9213
:100650009F92AF92BF92CF92DF92EF92FF920F9351
:100660001F93CF936B017C01742EAC019B010E9400
:10067000A10A882399F082E191E0CF911F910F9117
:10068000FF90EF90DF90CF90BF90AF909F908F90B2
:100690007F906F905F904F900C94D202460157016B
:1006A000E894B7F82FEF3FEF4FE75FE7C501B401DC
:1006B0000E94A10A81110DC02FEF3FEF4FE75FE7C6
:1006C000C501B4010E94D70818161CF486E191E018
:1006D000D4CF2FEF3FEF4FE75FE4C701B6010E9491
:1006E0002F0A18161CF48AE191E0C7CF2FEF3FEFD5
:1006F0004FE75FECC701B6010E94D70887FDF3CF33
:1007000020E030E0A901C701B6010E94D70810E03F
:1007100000E087FF0AC06DE284E391E00E94650279
:100720008C01F7FAF094F7F8F094C0E060E070E024
:1007300080E09FE37C1641F020E030E040E251E4AD
:100740000E94DC08CF5FF6CFA70196010E946B08DC
:100750002B013C010E944E094B015C014AE00E94C2
:10076000DF027C01E00EF11ECC23C1F1C501B40112
:100770000E947D099B01AC01C301B2010E946A087D
:100780004B015C016EE284E391E00E946502E80E99
:10079000F91EC15018F120E030E040E251E4C501FB
:1007A000B4010E94340A2B013C010E944E094B0106
:1007B000B12CA12C4AE0C501B4010E94DF02E80E71
:1007C000F91EC501B4010E947D099B01AC01C30162
:1007D000B2010E946A084B015C01DBCFC701CF91D7
:1007E0001F910F91FF90EF90DF90CF90BF90AF904F
:1007F0009F908F907F906F905F904F9008950F9390
:100800001F9390E0FC01E255FF4F6491FC01E65616
:10081000FF4FE491F0E0EE0FFF1FE057FF4F85918F
:10082000949100E412E42FE030E0462F0E9483050B
:10083000611571058105910529F06F5F7F4F8F4F1D
:100840009F4F9F701F910F9108951F920F920FB6A7
:100850000F9211242F933F938F939F93AF93BF9346
:1008600080912C0190912D01A0912E01B0912F012A
:1008700030912B0123E0230F2D3758F50196A11D50
:10088000B11D20932B0180932C0190932D01A093F7
:100890002E01B0932F018091300190913101A091F0
:1008A0003201B09133010196A11DB11D8093300139
:1008B00090933101A0933201B0933301BF91AF9176
:1008C0009F918F913F912F910F900FBE0F901F908E
:1008D000189526E8230F0296A11DB11DD2CF1F92B5
:1008E0000F920FB60F9211242F933F934F935F9364
:1008F0006F937F938F939F93AF93BF93EF93FF93E8
:1009000084E391E00E944302FF91EF91BF91AF9188
:100910009F918F917F916F915F914F913F912F9117
:100920000F900FBE0F901F9018951F920F920FB649
:100930000F9211242F938F939F93EF93FF93E09146
:100940004401F09145018081E0914A01F0914B0111
:1009500082FD1BC0908180914D018F5F8F7320912C
:100960004E01821741F0E0914D01F0E0EC5CFE4F4A
:10097000958F80934D01FF91EF919F918F912F91D2
:100980000F900FBE0F901F9018958081F4CF1F928B
:100990000F920FB60F9211242F933F934F935F93B3
:1009A0006F937F938F939F93AF93BF93CF93DF9377
:1009B000EF93FF9380912201C091F501D0E087FF72
:1009C00024C01092850010928400809122018F5FD4
:1009D0008093220180912201082E000C990B8C1724
:1009E0009D0724F4809122018C30C4F18091840011
:1009F00090918500049680349C4908F47AC08091D7
:100A0000840090918500049676C080912201082E82
:100A1000000C990B8C179D07C4F6E09122018E2FD4
:100A2000EE0F990BFC01EE0FFF1FE80FF91FEF52BD
:100A3000FE4F808186FFC9CFE09122018E2FEE0FFD
:100A4000990BFC01EE0FFF1FE80FF91FEF52FE4F4D
:100A5000808160E08F730E94F100B7CF2091840005
:100A600030918500E09122018E2FEE0F990BFC0151
:100A7000EE0FFF1FE80FF91FEF52FE4F81819281A9
:100A8000820F931F9093890080938800E091220148
:100A90008E2FEE0F990BFC01EE0FFF1FE80FF91FD1
:100AA000EF52FE4F808186FF11C0E09122018E2F10
:100AB000EE0F990BFC01EE0FFF1FE80FF91FEF522D
:100AC000FE4F808161E08F730E94F100FF91EF91F2
:100AD000DF91CF91BF91AF919F918F917F916F9156
:100AE0005F914F913F912F910F900FBE0F901F90EC
:100AF000189580E49CE990938900809388008FEF9B
:100B000080932201E3CFCF92DF92EF92FF920F9377
:100B10001F93E82FF92F05C0015011092109310950
:100B200061F1908196239417B9F305C00150110922
:100B30002109310911F1908196239413F7CFC12C2B
:100B4000D12CE12CF12C0AC08FEFC81AD80AE80A80
:100B5000F80A0C151D052E053F0579F080818623C6
:100B6000841791F36C2D7D2D8E2D9F2D1F910F914C
:100B7000FF90EF90DF90CF90089560E070E080E00C
:100B800090E01F910F91FF90EF90DF90CF9008952C
:100B9000109237011092360188EE93E0A0E0B0E0A9
:100BA0008093380190933901A0933A01B0933B01AF
:100BB00084E091E0909335018093340185EC90E0DE
:100BC000909341018093400184EC90E09093430125
:100BD0008093420180EC90E0909345018093440122
:100BE00081EC90E0909347018093460182EC90E085
:100BF000909349018093480186EC90E090934B01DB
:100C000080934A0110924D0110924E0110924F01B3
:100C1000109250018091F5018C3098F491E0980F7A
:100C20009093F5018093F60190E0FC01EE0FFF1F19
:100C3000E80FF91FEF52FE4F88EB9BE09283818310
:100C400008958FEF8093F6010895789484B58260BB
:100C500084BD84B5816084BD85B5826085BD85B560
:100C6000816085BD80916E00816080936E001092DE
:100C70008100809181008260809381008091810059
:100C800081608093810080918000816080938000EA
:100C90008091B10084608093B1008091B000816048
:100CA0008093B00080917A00846080937A00809174
:100CB0007A00826080937A0080917A0081608093CC
:100CC0007A0080917A00806880937A001092C10047
:100CD00061E082E00E943D0161E084E00E943D010C
:100CE00060E083E00E943D0160E085E00E943D01FC
:100CF00061E087E00E943D0161E088E00E943D01E3
:100D00008091F6018C3008F051C061E086E00E94CD
:100D10003D018091F601282F30E0F901EE0FFF1F11
:100D2000E20FF31FEF52FE4F9081907C966090830C
:100D30001092F7011092F8012CE0622F0E94A60A8F
:100D4000829FB001112430E020E0AB01420F531F1D
:100D5000FA01EE0FFF1FE40FF51FEF52FE4F9081D7
:100D600096FD16C02F5F3F4F2C30310571F7811172
:100D70000FC01092800082E0809381001092850065
:100D800010928400B19A80916F00826080936F000E
:100D9000E091F6018E2F90E0FC01EE0FFF1FE80FAF
:100DA000F91FEF52FE4F808180648083E0914401FF
:100DB000F091450182E08083E0914001F091410192
:100DC0001082E0914201F09143018FEC80831092F8
:100DD0004C01E0914801F091490186E08083E09167
:100DE0004601F0914701808180618083E091460156
:100DF000F0914701808188608083E0914601F09105
:100E00004701808180688083E0914601F09147012D
:100E100080818F7D8083C6E0D0E061E087E00E9422
:100E2000F10062E370E080E090E00E94930160E0F6
:100E300087E00E94F10062E370E080E090E00E94B1
:100E40009301219751F700E010E060E082E00E94FA
:100E5000F10062E070E080E090E00E94930161E0C8
:100E600082E00E94F1006EE170E080E090E00E947C
:100E7000930160E082E00E94F1006AE070E080E0AF
:100E800090E00E94930183E00E94FF030E947F098B
:100E900026E933E44BE05DE30E94340A20E030E0D1
:100EA00040E05FE30E94340A6093230170932401C1
:100EB000809325019093260142E00E9423038EE156
:100EC00091E00E94D20220E030E048EC51E46091D1
:100ED00023017091240180912501909126010E94A7
:100EE000D708811129C020E030E040EF51E4609143
:100EF0002701709128018091290190912A010E9477
:100F0000D7088823C9F0D0E0C0E0CE010E948C0051
:100F10002196CB35D105C9F768E873E180E090E010
:100F20000E9493018AE590E00E948C0065E070E0E9
:100F300080E090E00E94930160E084E00E94F10074
:100F400062E070E080E090E00E94930161E084E064
:100F50000E94F1006EE170E080E090E00E94930159
:100F600060E084E00E94F1006AE070E080E090E0E0
:100F70000E94930185E00E94FF03109227011092C6
:100F800028011092290110922A0142E060E070E0ED
:100F9000CB010E9423038EE191E00E94D20220E067
:100FA00030E040EF51E46091270170912801809179
:100FB000290190912A010E94D70881111CC060E08C
:100FC00087E00E94F10060E088E00E94F10064EF99
:100FD00071E080E090E00E94930161E087E00E9470
:100FE000F10061E088E00E94F10064EF71E080E0D0
:100FF00090E00E9493010115110509F426CF0E948B
:101000002F02882309F421CF0E9400001ECF052E55
:1010100097FB1EF400940E941E0857FD07D00E9403
:10102000390807FC03D04EF40C941E0850954095E7
:10103000309521953F4F4F4F5F4F08959095809584
:10104000709561957F4F8F4F9F4F08950E945B0869
:10105000A59F900DB49F900DA49F800D911D11240C
:101060000895B7FF0C9426080E942608821B930B54
:101070000895A1E21A2EAA1BBB1BFD010DC0AA1FD9
:10108000BB1FEE1FFF1FA217B307E407F50720F0F1
:10109000A21BB30BE40BF50B661F771F881F991F6C
:1010A0001A9469F760957095809590959B01AC01B5
:1010B000BD01CF010895A29FB001B39FC001A39FBE
:1010C000700D811D1124911DB29F700D811D112481
:1010D000911D08955058BB27AA270E9482080C949E
:1010E000F5090E94E70938F00E94EE0920F039F472
:1010F0009F3F19F426F40C94E4090EF4E095E7FB05
:101100000C94DE09E92F0E94060A58F3BA17620709
:1011100073078407950720F079F4A6F50C94280A44
:101120000EF4E0950B2EBA2FA02D0B01B901900102
:101130000C01CA01A0011124FF27591B99F0593F46
:1011400050F4503E68F11A16F040A22F232F342F8E
:101150004427585FF3CF469537952795A795F040DC
:101160005395C9F77EF41F16BA0B620B730B840BF1
:10117000BAF09150A1F0FF0FBB1F661F771F881FA9
:10118000C2F70EC0BA0F621F731F841F48F4879501
:1011900077956795B795F7959E3F08F0B0CF9395F3
:1011A000880F08F09927EE0F9795879508950E946C
:1011B000BA0908F481E008950E94F0080C94F5093A
:1011C0000E94EE0958F00E94E70940F029F45F3FC1
:1011D00029F00C94DE0951110C94290A0C94E409AD
:1011E0000E94060A68F39923B1F3552391F3951BE6
:1011F000550BBB27AA2762177307840738F09F5F38
:101200005F4F220F331F441FAA1FA9F335D00E2EA4
:101210003AF0E0E832D091505040E695001CCAF711
:101220002BD0FE2F29D0660F771F881FBB1F2617D4
:1012300037074807AB07B0E809F0BB0B802DBF01AB
:10124000FF2793585F4F3AF09E3F510578F00C947A
:10125000DE090C94290A5F3FE4F3983ED4F38695A7
:1012600077956795B795F7959F5FC9F7880F911D9B
:101270009695879597F90895E1E0660F771F881F87
:10128000BB1F621773078407BA0720F0621B730B3A
:10129000840BBA0BEE1F88F7E09508950E940E0AA2
:1012A00088F09F5798F0B92F9927B751B0F0E1F027
:1012B000660F771F881F991F1AF0BA95C9F714C0D7
:1012C000B13091F00E94280AB1E008950C94280AE8
:1012D000672F782F8827B85F39F0B93FCCF3869510
:1012E00077956795B395D9F73EF49095809570956D
:1012F00061957F4F8F4F9F4F0895E89409C097FBEA
:101300003EF490958095709561957F4F8F4F9F4FDC
:101310009923A9F0F92F96E9BB279395F695879520
:1013200077956795B795F111F8CFFAF4BB0F11F4E3
:1013300060FF1BC06F5F7F4F8F4F9F4F16C088238A
:1013400011F096E911C0772321F09EE8872F762FC0
:1013500005C0662371F096E8862F70E060E02AF001
:101360009A95660F771F881FDAF7880F96958795ED
:1013700097F90895990F0008550FAA0BE0E8FEEFC2
:1013800016161706E807F907C0F012161306E40749
:10139000F50798F0621B730B840B950B39F40A2642
:1013A00061F0232B242B252B21F408950A2609F420
:1013B000A140A6958FEF811D811D089597F99F6724
:1013C00080E870E060E008959FEF80EC08950024CD
:1013D0000A941616170618060906089500240A949A
:1013E00012161306140605060895092E0394000C20
:1013F00011F4882352F0BB0F40F4BF2B11F460FFAF
:1014000004C06F5F7F4F8F4F9F4F089557FD9058D7
:10141000440F551F59F05F3F71F04795880F97FBB8
:10142000991F61F09F3F79F0879508951216130672
:101430001406551FF2CF4695F1DF08C016161706A1
:101440001806991FF1CF86957105610508940895D6
:10145000E894BB2766277727CB0197F908950E9468
:10146000BA0908F48FEF08950E94470A0C94F50911
:101470000E94E70938F00E94EE0920F0952311F050
:101480000C94DE090C94E40911240C94290A0E949E
:10149000060A70F3959FC1F3950F50E0551F629FA8
:1014A000F001729FBB27F00DB11D639FAA27F00DBD
:1014B000B11DAA1F649F6627B00DA11D661F829FE4
:1014C0002227B00DA11D621F739FB00DA11D621FC9
:1014D000839FA00D611D221F749F3327A00D611DE6
:1014E000231F849F600D211D822F762F6A2F1124C8
:1014F0009F5750409AF0F1F088234AF0EE0FFF1FFB
:10150000BB1F661F771F881F91505040A9F79E3F51
:10151000510580F00C94DE090C94290A5F3FE4F336
:10152000983ED4F3869577956795B795F795E795A7
:101530009F5FC1F7FE2B880F911D9695879597F9B0
:1015400008950E94BA09880B990B0895991B79E0B8
:1015500004C0991F961708F0961B881F7A95C9F743
:1015600080950895EE0FFF1F0590F491E02D0994EA
:04157000F894FFCF1D
:10157400000000006502C501F201B202230201026B
:1015840015026E616E00696E66006F7666000D0A64
:02159400000055
:00000001FF
